package org.bitcoins.core.script.interpreter


import org.bitcoins.core.crypto.{ECPrivateKey, TransactionSignatureComponent, TransactionSignatureSerializer}
import org.bitcoins.core.currency.CurrencyUnits
import org.bitcoins.core.gen.TransactionGenerators
import org.bitcoins.core.number.UInt32
import org.bitcoins.core.policy.Policy
import org.bitcoins.core.protocol.script._
import org.bitcoins.core.protocol.transaction.WitnessTransaction
import org.bitcoins.core.script.ScriptProgram
import org.bitcoins.core.script.flag.ScriptFlagFactory
import org.bitcoins.core.script.interpreter.testprotocol.CoreTestCaseProtocol._
import org.bitcoins.core.script.interpreter.testprotocol.{CoreTestCase, CoreTestCaseProtocol}
import org.bitcoins.core.script.result.ScriptErrorUnsatisfiedLocktime
import org.bitcoins.core.util._
import org.scalatest.{FlatSpec, MustMatchers}
import spray.json._

import scala.io.Source
/**
 * Created by chris on 1/6/16.
 */
class ScriptInterpreterTest extends FlatSpec with MustMatchers with ScriptInterpreter with BitcoinSLogger {

  "ScriptInterpreter" must "evaluate all the scripts from the bitcoin core script_tests.json" in {

    val source = Source.fromURL(getClass.getResource("/script_tests.json"))


    //use this to represent a single test case from script_valid.json
/*    val lines =
        """
          | [ [
          |  [
          |   "304402201e7216e5ccb3b61d46946ec6cc7e8c4e0117d13ac2fd4b152197e4805191c74202203e9903e33e84d9ee1dd13fb057afb7ccfb47006c23f6a067185efbc9dd780fc501",
          |   "0479be667ef9dcbbac55a06295ce870b07029bfcdb2dce28d959f2815b16f81798483ada7726a3c4655da4fbfc0e1108a8fd17b448a68554199c47d08ffb10d4b8",
          |   0.00000001
          |  ],
          |  "",
          |  "0 0x14 0x91b24bf9f5288532960ac687abb035127b1d28a5",
          |  "P2SH,WITNESS",
          |  "OK",
          |  "Basic P2WPKH"
          | ]]
   """.stripMargin*/
    val lines = try source.getLines.filterNot(_.isEmpty).map(_.trim) mkString "\n" finally source.close()
    val json = lines.parseJson
    val testCasesOpt : Seq[Option[CoreTestCase]] = json.convertTo[Seq[Option[CoreTestCase]]]
    val testCases : Seq[CoreTestCase] = testCasesOpt.flatten
    for {
      testCase <- testCases
      (creditingTx,outputIndex) = TransactionTestUtil.buildCreditingTransaction(testCase.scriptPubKey, testCase.witness.map(_._2))
      (tx,inputIndex) = TransactionTestUtil.buildSpendingTransaction(creditingTx,testCase.scriptSig,outputIndex, testCase.witness)
    } yield {
      logger.info("Raw test case: " + testCase.raw)
      logger.info("Parsed ScriptSig: " + testCase.scriptSig)
      logger.info("Parsed ScriptPubKey: " + testCase.scriptPubKey)
      logger.info("Parsed tx: " + tx.hex)
      logger.info("Flags: " + testCase.flags)
      logger.info("Comments: " + testCase.comments)
      val scriptPubKey = ScriptPubKey.fromAsm(testCase.scriptPubKey.asm)
      val flags = ScriptFlagFactory.fromList(testCase.flags)
      val witness = testCase.witness
      logger.info("Flags after parsing: " + flags)
      logger.info("Witness after parsing: " + witness)
      val program = witness match {
        case Some((w, amount)) => ScriptProgram(tx.asInstanceOf[WitnessTransaction], scriptPubKey, inputIndex, flags, w, amount)
        case None => ScriptProgram(tx, scriptPubKey, inputIndex, flags)
      }
      //tx.hex must be ("0100000000010190491d88b9f0dc24d271f0f67179bce5914afe1ac0f83f6cd205f8b807436d6f0000000000ffffffff010100000000000000000247304402200d461c140cfdfcf36b94961db57ae8c18d1cb80e9d95a9e47ac22470c1bf125502201c8dc1cbfef6a3ef90acbbb992ca22fe9466ee6f9d4898eda277a7ac3ab4b2510143410479be667ef9dcbbac55a06295ce870b07029bfcdb2dce28d959f2815b16f81798483ada7726a3c4655da4fbfc0e1108a8fd17b448a68554199c47d08ffb10d4b8ac00000000")

      withClue(testCase.raw) {
        ScriptInterpreter.run(program) must equal (testCase.expectedResult)
      }
    }
  }
}
